{
  "_format": "hh-sol-artifact-1",
  "contractName": "TokenFaucet",
  "sourceName": "contracts/TokenFaucet.sol",
  "abi": [
    {
      "inputs": [
        {
          "internalType": "address",
          "name": "tokenAddress",
          "type": "address"
        }
      ],
      "stateMutability": "nonpayable",
      "type": "constructor"
    },
    {
      "anonymous": false,
      "inputs": [
        {
          "indexed": false,
          "internalType": "bool",
          "name": "paused",
          "type": "bool"
        }
      ],
      "name": "FaucetPaused",
      "type": "event"
    },
    {
      "anonymous": false,
      "inputs": [
        {
          "indexed": true,
          "internalType": "address",
          "name": "user",
          "type": "address"
        },
        {
          "indexed": false,
          "internalType": "uint256",
          "name": "amount",
          "type": "uint256"
        },
        {
          "indexed": false,
          "internalType": "uint256",
          "name": "timestamp",
          "type": "uint256"
        }
      ],
      "name": "TokensClaimed",
      "type": "event"
    },
    {
      "inputs": [],
      "name": "COOLDOWN_TIME",
      "outputs": [
        {
          "internalType": "uint256",
          "name": "",
          "type": "uint256"
        }
      ],
      "stateMutability": "view",
      "type": "function"
    },
    {
      "inputs": [],
      "name": "FAUCET_AMOUNT",
      "outputs": [
        {
          "internalType": "uint256",
          "name": "",
          "type": "uint256"
        }
      ],
      "stateMutability": "view",
      "type": "function"
    },
    {
      "inputs": [],
      "name": "MAX_CLAIM_AMOUNT",
      "outputs": [
        {
          "internalType": "uint256",
          "name": "",
          "type": "uint256"
        }
      ],
      "stateMutability": "view",
      "type": "function"
    },
    {
      "inputs": [],
      "name": "admin",
      "outputs": [
        {
          "internalType": "address",
          "name": "",
          "type": "address"
        }
      ],
      "stateMutability": "view",
      "type": "function"
    },
    {
      "inputs": [
        {
          "internalType": "address",
          "name": "user",
          "type": "address"
        }
      ],
      "name": "canClaim",
      "outputs": [
        {
          "internalType": "bool",
          "name": "",
          "type": "bool"
        }
      ],
      "stateMutability": "view",
      "type": "function"
    },
    {
      "inputs": [],
      "name": "isPaused",
      "outputs": [
        {
          "internalType": "bool",
          "name": "",
          "type": "bool"
        }
      ],
      "stateMutability": "view",
      "type": "function"
    },
    {
      "inputs": [
        {
          "internalType": "address",
          "name": "",
          "type": "address"
        }
      ],
      "name": "lastClaimAt",
      "outputs": [
        {
          "internalType": "uint256",
          "name": "",
          "type": "uint256"
        }
      ],
      "stateMutability": "view",
      "type": "function"
    },
    {
      "inputs": [
        {
          "internalType": "address",
          "name": "user",
          "type": "address"
        }
      ],
      "name": "remainingAllowance",
      "outputs": [
        {
          "internalType": "uint256",
          "name": "",
          "type": "uint256"
        }
      ],
      "stateMutability": "view",
      "type": "function"
    },
    {
      "inputs": [],
      "name": "requestTokens",
      "outputs": [],
      "stateMutability": "nonpayable",
      "type": "function"
    },
    {
      "inputs": [
        {
          "internalType": "bool",
          "name": "_paused",
          "type": "bool"
        }
      ],
      "name": "setPaused",
      "outputs": [],
      "stateMutability": "nonpayable",
      "type": "function"
    },
    {
      "inputs": [],
      "name": "token",
      "outputs": [
        {
          "internalType": "contract FaucetToken",
          "name": "",
          "type": "address"
        }
      ],
      "stateMutability": "view",
      "type": "function"
    },
    {
      "inputs": [
        {
          "internalType": "address",
          "name": "",
          "type": "address"
        }
      ],
      "name": "totalClaimed",
      "outputs": [
        {
          "internalType": "uint256",
          "name": "",
          "type": "uint256"
        }
      ],
      "stateMutability": "view",
      "type": "function"
    }
  ],
  "bytecode": "0x60a06040523480156200001157600080fd5b5060405162000f3c38038062000f3c83398181016040528101906200003791906200018e565b600073ffffffffffffffffffffffffffffffffffffffff168173ffffffffffffffffffffffffffffffffffffffff1603620000a9576040517f08c379a0000000000000000000000000000000000000000000000000000000008152600401620000a09062000221565b60405180910390fd5b8073ffffffffffffffffffffffffffffffffffffffff1660808173ffffffffffffffffffffffffffffffffffffffff1681525050336000806101000a81548173ffffffffffffffffffffffffffffffffffffffff021916908373ffffffffffffffffffffffffffffffffffffffff1602179055505062000243565b600080fd5b600073ffffffffffffffffffffffffffffffffffffffff82169050919050565b6000620001568262000129565b9050919050565b620001688162000149565b81146200017457600080fd5b50565b60008151905062000188816200015d565b92915050565b600060208284031215620001a757620001a662000124565b5b6000620001b78482850162000177565b91505092915050565b600082825260208201905092915050565b7f496e76616c696420746f6b656e20616464726573730000000000000000000000600082015250565b600062000209601583620001c0565b91506200021682620001d1565b602082019050919050565b600060208201905081810360008301526200023c81620001fa565b9050919050565b608051610cd662000266600039600081816104e301526107dd0152610cd66000f3fe608060405234801561001057600080fd5b50600436106100b45760003560e01c8063bf3506c111610071578063bf3506c114610169578063e362b4f714610199578063ef5d9ae8146101b7578063f357df6d146101e7578063f851a44014610217578063fc0c546a14610235576100b4565b806303822d3b146100b957806316c38b3c146100e9578063359cf2b714610105578063766976401461010f5780637d2632451461012d578063b187bd261461014b575b600080fd5b6100d360048036038101906100ce9190610862565b610253565b6040516100e091906108a8565b60405180910390f35b61010360048036038101906100fe91906108fb565b61026b565b005b61010d61034d565b005b6101176105d3565b60405161012491906108a8565b60405180910390f35b6101356105e0565b60405161014291906108a8565b60405180910390f35b6101536105e7565b6040516101609190610937565b60405180910390f35b610183600480360381019061017e9190610862565b6105fd565b6040516101909190610937565b60405180910390f35b6101a16106dc565b6040516101ae91906108a8565b60405180910390f35b6101d160048036038101906101cc9190610862565b6106e9565b6040516101de91906108a8565b60405180910390f35b61020160048036038101906101fc9190610862565b610701565b60405161020e91906108a8565b60405180910390f35b61021f6107b7565b60405161022c9190610961565b60405180910390f35b61023d6107db565b60405161024a91906109db565b60405180910390f35b60016020528060005260406000206000915090505481565b60008054906101000a900473ffffffffffffffffffffffffffffffffffffffff1673ffffffffffffffffffffffffffffffffffffffff163373ffffffffffffffffffffffffffffffffffffffff16146102f9576040517f08c379a00000000000000000000000000000000000000000000000000000000081526004016102f090610a53565b60405180910390fd5b80600060146101000a81548160ff0219169083151502179055507f50cfd8deb0b293676ae69355a9eed053a00f81d3bd6a0ae4dc082629e6476f7f816040516103429190610937565b60405180910390a150565b600060149054906101000a900460ff161561039d576040517f08c379a000000000000000000000000000000000000000000000000000000000815260040161039490610abf565b60405180910390fd5b6103a6336105fd565b6103e5576040517f08c379a00000000000000000000000000000000000000000000000000000000081526004016103dc90610b2b565b60405180910390fd5b60006103f033610701565b905068056bc75e2d6310000081101561043e576040517f08c379a000000000000000000000000000000000000000000000000000000000815260040161043590610b97565b60405180910390fd5b42600160003373ffffffffffffffffffffffffffffffffffffffff1673ffffffffffffffffffffffffffffffffffffffff1681526020019081526020016000208190555068056bc75e2d63100000600260003373ffffffffffffffffffffffffffffffffffffffff1673ffffffffffffffffffffffffffffffffffffffff16815260200190815260200160002060008282546104da9190610be6565b925050819055507f000000000000000000000000000000000000000000000000000000000000000073ffffffffffffffffffffffffffffffffffffffff166340c10f193368056bc75e2d631000006040518363ffffffff1660e01b8152600401610545929190610c1a565b600060405180830381600087803b15801561055f57600080fd5b505af1158015610573573d6000803e3d6000fd5b505050503373ffffffffffffffffffffffffffffffffffffffff167f9923b4306c6c030f2bdfbf156517d5983b87e15b96176da122cd4f2effa4ba7b68056bc75e2d63100000426040516105c8929190610c43565b60405180910390a250565b68056bc75e2d6310000081565b6201518081565b60008060149054906101000a900460ff16905090565b60008060149054906101000a900460ff161561061c57600090506106d7565b62015180600160008473ffffffffffffffffffffffffffffffffffffffff1673ffffffffffffffffffffffffffffffffffffffff1681526020019081526020016000205461066a9190610be6565b42101561067a57600090506106d7565b683635c9adc5dea00000600260008473ffffffffffffffffffffffffffffffffffffffff1673ffffffffffffffffffffffffffffffffffffffff16815260200190815260200160002054106106d257600090506106d7565b600190505b919050565b683635c9adc5dea0000081565b60026020528060005260406000206000915090505481565b6000683635c9adc5dea00000600260008473ffffffffffffffffffffffffffffffffffffffff1673ffffffffffffffffffffffffffffffffffffffff168152602001908152602001600020541061075b57600090506107b2565b600260008373ffffffffffffffffffffffffffffffffffffffff1673ffffffffffffffffffffffffffffffffffffffff16815260200190815260200160002054683635c9adc5dea000006107af9190610c6c565b90505b919050565b60008054906101000a900473ffffffffffffffffffffffffffffffffffffffff1681565b7f000000000000000000000000000000000000000000000000000000000000000081565b600080fd5b600073ffffffffffffffffffffffffffffffffffffffff82169050919050565b600061082f82610804565b9050919050565b61083f81610824565b811461084a57600080fd5b50565b60008135905061085c81610836565b92915050565b600060208284031215610878576108776107ff565b5b60006108868482850161084d565b91505092915050565b6000819050919050565b6108a28161088f565b82525050565b60006020820190506108bd6000830184610899565b92915050565b60008115159050919050565b6108d8816108c3565b81146108e357600080fd5b50565b6000813590506108f5816108cf565b92915050565b600060208284031215610911576109106107ff565b5b600061091f848285016108e6565b91505092915050565b610931816108c3565b82525050565b600060208201905061094c6000830184610928565b92915050565b61095b81610824565b82525050565b60006020820190506109766000830184610952565b92915050565b6000819050919050565b60006109a161099c61099784610804565b61097c565b610804565b9050919050565b60006109b382610986565b9050919050565b60006109c5826109a8565b9050919050565b6109d5816109ba565b82525050565b60006020820190506109f060008301846109cc565b92915050565b600082825260208201905092915050565b7f43616c6c6572206973206e6f742061646d696e00000000000000000000000000600082015250565b6000610a3d6013836109f6565b9150610a4882610a07565b602082019050919050565b60006020820190508181036000830152610a6c81610a30565b9050919050565b7f4661756365742069732070617573656400000000000000000000000000000000600082015250565b6000610aa96010836109f6565b9150610ab482610a73565b602082019050919050565b60006020820190508181036000830152610ad881610a9c565b9050919050565b7f436f6f6c646f776e20706572696f64206e6f7420656c61707365640000000000600082015250565b6000610b15601b836109f6565b9150610b2082610adf565b602082019050919050565b60006020820190508181036000830152610b4481610b08565b9050919050565b7f4c69666574696d6520636c61696d206c696d6974207265616368656400000000600082015250565b6000610b81601c836109f6565b9150610b8c82610b4b565b602082019050919050565b60006020820190508181036000830152610bb081610b74565b9050919050565b7f4e487b7100000000000000000000000000000000000000000000000000000000600052601160045260246000fd5b6000610bf18261088f565b9150610bfc8361088f565b9250828201905080821115610c1457610c13610bb7565b5b92915050565b6000604082019050610c2f6000830185610952565b610c3c6020830184610899565b9392505050565b6000604082019050610c586000830185610899565b610c656020830184610899565b9392505050565b6000610c778261088f565b9150610c828361088f565b9250828203905081811115610c9a57610c99610bb7565b5b9291505056fea26469706673582212204a938743d55cbce1d3f78fe1910c69fa1f5d9a93754524883ec02b45bdd2979264736f6c63430008140033",
  "linkReferences": {},
  "deployedLinkReferences": {}
}